S00D00006C61625F382E7372656351
S11300000C94FE000C9424010C9424010C942401FF
S11300100C9424010C9424010C9424010C942401C8
S11300200C9424010C9424010C9424010C942401B8
S11300300C9424010C9424010C9424010C942401A8
S11300400C9424010C9424010C9424010C94240198
S11300500C9424010C9424010C9424010C94240188
S11300600C9424010C9424010C9424010C94240178
S11300700C9424010C9424010C9424010C94240168
S11300800C9424010C9424010C9424010C94240158
S11300900C9424010C9424010C9424010C94240148
S11300A00C9424010C9424010C9424010C94240138
S11300B00C9424010C9424010C9424010C94240128
S11300C00C9424010C9424010C9424010C94240118
S11300D00C9424010C9424010C9424010C94240108
S11300E00C9424010C9424010C9424010C942401F8
S11300F00C9424010C9424010C9424010C942401E8
S11301000C9424010C9424010C9424010C942401D7
S11301100C9424010C9424010C9424010C942401C7
S11301200C9424010C9424010C9424010C942401B7
S11301300C9424010C9424010C9424010C942401A7
S11301400C9424010C9424010C9424010C94240197
S11301500C9424010C9424010C9424010C94240187
S11301600C94A7020C9424010C9424010C942401F3
S11301700C9424010C9424010C9424010C94240167
S11301800C9424010C9424010C9424010C94240157
S11301900C9424010C9424010C9424010C94240147
S11301A00C9424010C9424010C9424010C94240137
S11301B00C9424010C9424010C9424010C94240127
S11301C00C9424010C9424010C9424010C94240117
S11301D00C9424010C9424010C9424010C94240107
S11301E00C9424010C9424010C9424010C942401F7
S11301F00C9424010C9424010C94240111241FBE9A
S1130200CFEFCDBFDFE3DEBF00E00CBF18BE19BEE9
S11302101ABE1BBE14E2A0E0B0E2ECE6F9E000E096
S11302200BBF02C007900D92A430B107D9F71BBED3
S113023024E2A4E0B4E201C01D92A830B207E1F7C1
S11302400E943C010C94B4040C9400008F9382E04F
S1130250809350008091510081FFFCCF88ED809302
S1130260340081E08093400088ED8093340080E086
S1130270809341008F910895CF93DF931F921F9233
S1130280CDB7DEB70E9426010E949D010E944E0256
S11302900E94B4010E94DC010E94620280EA90E0A4
S11302A022E0FC0122837894809105248130A1F41A
S11302B01092052480910424813029F481E090E097
S11302C00E94A703F1CF80910424882369F780E07A
S11302D090E00E94A703E8CF80910624882321F3AD
S11302E080E098E022E0FC01208380E098E0209107
S11302F00724222F30E0FC0126A337A319821A8297
S113030010C0000080E098E0FC018485882F90E014
S113031081709927892BB1F389819A810196898308
S11303209A8389819A818035934C58F380E098E0D0
S1130330FC01108210920624B7CFCF93DF93CDB780
S1130340DEB780E093E020E2FC01218380E093E0CB
S113035028E1FC01228380E093E029E0FC01208372
S11303600000DF91CF910895CF93DF9300D0CDB7F4
S1130370DEB78FE390E089839A831B8280E098E064
S1130380FC0110A211A280E098E02B81422F220FE1
S1130390550B29813A81240F351FFC0126A337A36D
S11303A080E891E020ECFC01208300002396CDBF7F
S11303B0DEBFDF91CF910895CF93DF93CDB7DEB742
S11303C080E091E020910322FC01208380E091E011
S11303D020E4FC01208380E091E024E032E2FC018F
S11303E0208F80E091E024E032E2232F3327FC01C8
S11303F0218F80E091E024E032E240E150E002C04D
S1130400369527954A95E2F7FC01228F80E091E02A
S11304102AE1FC01248F80E091E023E0FC01258F98
S113042080E091E0FC01168E80E091E020E032E073
S1130430FC01248B358B80E091E021E2FC01208BD0
S113044080E091E020E031E0F90120892460FC01A2
S1130450208B80E091E028E4FC01228B80E091E095
S113046020E031E0F90122892161FC01228B80E046
S113047091E021E0FC01238B80E091E020E8FC0185
S1130480208380E091E020E031E0F90120892068B8
S1130490FC01208B0000DF91CF910895CF93DF936F
S11304A0CDB7DEB780E496E020910022FC012583DD
S11304B080E496E020910022FC0121830000DF917A
S11304C0CF910895CF93DF93CDB7DEB780E696E062
S11304D028E0FC01258380E696E028E0FC012183E6
S11304E080E696E024E0FC01228380EA99E02091F2
S11304F00122FC01268380EA99E020910222022E47
S1130500000C330B22953295307F3227207F32271F
S1130510422F20910122022E000C330B232F330F84
S1130520330B242BFC01278380EA99E023E3FC01AD
S1130530258380EA99E028E1FC01248380EA99E09C
S113054020E2FC0123830000DF91CF9108951F92E4
S11305500F9200903F000F921124009038000F92E8
S11305601092380000903A000F9210923A000090D6
S11305703B000F9210923B008F939F93EF93FF9356
S1130580CF93DF931F92CDB7DEB780EA99E0FC01E9
S1130590808189838981833719F089818335B1F416
S11305A080910424813031F41092042481E08093FA
S11305B00524B5C080910424882309F0B0C081E0EB
S11305C08093042481E080930524A9C08981853621
S11305D019F08981853439F481E0809306248DE310
S11305E0809307249DC08981843319F089818433E1
S11305F039F481E08093062489E38093072490C032
S11306008981823719F08981823539F481E08093B8
S1130610062486E38093072483C08981853319F0F7
S11306208981853339F481E08093062483E38093C0
S1130630072476C08981843719F08981843539F497
S113064081E08093062480E38093072469C0898134
S1130650893719F08981893539F481E0809306243A
S11306608DE2809307245CC08981873319F08981E6
S1130670873339F481E0809306248BE28093072446
S11306804FC08981853719F08981853539F481E036
S11306908093062488E28093072442C089818833AA
S11306A019F08981883339F481E08093062486E245
S11306B08093072435C08981893619F0898189346A
S11306C039F481E08093062484E28093072428C0CF
S11306D08981893319F08981893339F481E08093E0
S11306E0062482E2809307241BC089818F3619F087
S11306F089818F3439F481E08093062480E28093E9
S113070007240EC08981803719F08981803541F42E
S113071081E0809306248EE18093072401C00000C9
S113072000000F90DF91CF91FF91EF919F918F91F6
S11307300F9000923B000F9000923A000F900092AD
S113074038000F9000923F000F901F901895CF93A0
S1130750DF931F92CDB7DEB789838981882309F09F
S11307607DC080E091E020910322FC01208380E0A1
S113077091E020E4FC01208380E091E024E032E277
S1130780FC01208F80E091E024E032E2232F332724
S1130790FC01218F80E091E024E032E240E150E06E
S11307A002C0369527954A95E2F7FC01228F80E036
S11307B091E02AE1FC01248F80E091E023E0FC0138
S11307C0258F80E091E0FC01168E80E091E020E02E
S11307D032E0FC01248B358B80E091E020E031E0B5
S11307E0F90120892162FC01208B80E091E020E066
S11307F031E0F90120892460FC01208B80E091E044
S113080020E031E0F90122892864FC01228B80E098
S113081091E020E031E0F90122892161FC01228B81
S113082080E091E020E031E0F90123892160FC01BE
S1130830238B80E091E020E031E0F9012081206801
S1130840FC01208380E091E020E031E0F90120897F
S11308502068FC01208B1092042481C0898181309E
S113086009F07DC080E091E020910322FC01208307
S113087080E091E020E4FC01208380E091E020E02E
S113088030E2FC01208F80E091E020E030E2232F71
S11308903327FC01218F80E091E020E030E240E149
S11308A050E002C0369527954A95E2F7FC01228F65
S11308B080E091E02AE1FC01248F80E091E023E0D4
S11308C0FC01258F80E091E0FC01168E80E091E030
S11308D020E032E0FC01248B358B80E091E020E0C5
S11308E031E0F90120892162FC01208B80E091E054
S11308F020E031E0F90120892460FC01208B80E0B4
S113090091E020E031E0F90122892864FC01228B86
S113091080E091E020E031E0F90122892161FC01CD
S1130920228B80E091E020E031E0F901238921600D
S1130930FC01238B80E091E020E031E0F90120818B
S11309402068FC01208380E091E020E031E0F9019F
S113095020892068FC01208B81E08093042400001E
S10F09600F90DF91CF910895F894FFCF21
S113096C2000400060008000A000C000E0000001F6
S113097C2001400160018001A001C001E0010002DE
S113098C2002400260028002A002C002E0020003C6
S113099C2003400360038003A003C003E0030004AE
S11309AC2004400460048004A004C004E004000596
S11309BC2005400560058005A005C005E00500067E
S11309CC2006400660068006A006C006E006000766
S11309DC2007400760078007A007C007E00700084E
S11309EC1F083F085F087F089F08BF08DF08FF083F
S11309FC1F093F095F097F099F09BF09DF09FF0927
S1130A0C1F0A3F0A5F0A7F0A9F0ABF0ADF0AFF0A0E
S1130A1C1F0B3F0B5F0B7F0B9F0BBF0BDF0BFF0BF6
S1130A2C1F0C3F0C5F0C7F0C9F0CBF0CDF0CFF0CDE
S1130A3C1F0D3F0D5F0D7F0D9F0DBF0DDF0DFF0DC6
S1130A4C1F0E3F0E5F0E7F0E9F0EBF0EDF0EFF0EAE
S1130A5C1F0F3F0F5F0F7F0F9F0FBF0FDF0FFF0F96
S1130A6CDF0FBF0F9F0F7F0F5F0F3F0F1F0FFF0E87
S1130A7CDF0EBF0E9F0E7F0E5F0E3F0E1F0EFF0D7F
S1130A8CDF0DBF0D9F0D7F0D5F0D3F0D1F0DFF0C77
S1130A9CDF0CBF0C9F0C7F0C5F0C3F0C1F0CFF0B6F
S1130AACDF0BBF0B9F0B7F0B5F0B3F0B1F0BFF0A67
S1130ABCDF0ABF0A9F0A7F0A5F0A3F0A1F0AFF095F
S1130ACCDF09BF099F097F095F093F091F09FF0857
S1130ADCDF08BF089F087F085F083F081F0800084D
S1130AECE007C007A007800760074007200700073E
S1130AFCE006C006A0068006600640062006000636
S1130B0CE005C005A005800560054005200500052D
S1130B1CE004C004A0048004600440042004000425
S1130B2CE003C003A003800360034003200300031D
S1130B3CE002C002A0028002600240022002000215
S1130B4CE001C001A001800160014001200100010D
S1130B5CE000C000A0008000600040002000000005
S1130B6C8041FE800008320864089608C808FA0818
S1130B7C2C095E098F09C009F109220A520A820A5A
S1130B8CB10AE00A0F0B3D0B6B0B980BC50BF10B69
S1130B9C1C0C470C710C9A0CC30CEB0C120D390D7C
S1130BAC5F0D830DA70DCA0DED0D0E0E2E0E4E0E00
S1130BBC6C0E8A0EA60EC10EDC0EF50E0D0F240F54
S1130BCC3A0F4F0F630F760F870F980FA70FB50FC0
S1130BDCC20FCD0FD80FE10FE90FF00FF50FF90F7E
S1130BECFD0FFE0FFF0FFE0FFD0FF90FF50FF00FAA
S1130BFCE90FE10FD80FCD0FC20FB50FA70F980F48
S1130C0C870F760F630F4F0F3A0F240F0D0FF50E4E
S1130C1CDC0EC10EA60E8A0E6C0E4E0E2E0E0E0E91
S1130C2CED0DCA0DA70D830D5F0D390D120DEB0CD7
S1130C3CC30C9A0C710C470C1C0CF10BC50B980BC8
S1130C4C6B0B3D0B0F0BE00AB10A820A520A220A03
S1130C5CF109C0098F095E092C09FA08C80896081D
S1130C6C640832080008CD079B0769073707050796
S1130C7CD306A10670063F060E06DD05AD057D05FF
S1130C8C4E051F05F004C204940467043A040E04D0
S1130C9CE303B8038E0365033C031403ED02C6029D
S1130CACA0027C02580235021202F101D101B101F9
S1130CBC9301750159013E0123010A01F200DB0085
S1130CCCC500B0009C0089007800670058004A00F9
S1130CDC3D00320027001E0016000F000A0006001B
S1130CEC0200010000000100020006000A000F00CF
S1130CFC16001E00270032003D004A005800670011
S1130D0C780089009C00B000C500DB00F2000A01E9
S1130D1C23013E01590175019301B101D101F10186
S1130D2C1202350258027C02A002C602ED02140320
S1130D3C3C0365038E03B803E3030E043A0467040F
S1130D4C9404C204F0041F054E057D05AD05DD05B4
S1130D5C0E063F067006A106D3060507370769077A
S1070D6C9B07CD0709
S9030000FC
