:100000000C94FE000C941C010C941C010C941C011B
:100010000C941C010C941C010C941C010C941C01EC
:100020000C941C010C941C010C941C010C941C01DC
:100030000C941C010C941C010C941C010C941C01CC
:100040000C941C010C941C010C941C010C941C01BC
:100050000C941C010C941C010C941C010C941C01AC
:100060000C941C010C941C010C941C010C941C019C
:100070000C941C010C941C010C941C010C941C018C
:100080000C941C010C941C010C941C010C941C017C
:100090000C941C010C941C010C941C010C941C016C
:1000A0000C941C010C941C010C941C010C941C015C
:1000B0000C941C010C941C010C941C010C941C014C
:1000C0000C941C010C941C010C941C010C941C013C
:1000D0000C941C010C941C010C941C010C941C012C
:1000E0000C941C010C941C010C941C010C941C011C
:1000F0000C941C010C941C010C941C010C941C010C
:100100000C941C010C941C010C941C010C941C01FB
:100110000C941C010C941C010C941C010C941C01EB
:100120000C941C010C941C010C941C010C941C01DB
:100130000C941C010C941C010C941C010C941C01CB
:100140000C941C010C941C010C941C010C941C01BB
:100150000C941C010C941C010C941C010C941C01AB
:100160000C941C010C941C010C941C010C941C019B
:100170000C941C010C941C010C941C010C941C018B
:100180000C941C010C941C010C941C010C941C017B
:100190000C941C010C941C010C941C010C941C016B
:1001A0000C941C010C941C010C941C010C941C015B
:1001B0000C941C010C941C010C941C010C941C014B
:1001C0000C941C010C941C010C941C010C941C013B
:1001D0000C941C010C941C010C941C010C941C012B
:1001E0000C941C010C941C010C941C010C941C011B
:1001F0000C941C010C941C010C941C0111241FBEB6
:10020000CFEFCDBFDFE3DEBF00E00CBF18BE19BEED
:100210001ABE1BBE12E2A0E0B0E2E2E6F3E000E0AC
:100220000BBF02C007900D92A230B107D9F71BBED9
:100230000E9434010C94AF010C9400008F9382E073
:10024000809350008091510081FFFCCF88ED809316
:10025000340081E08093400088ED8093340080E09A
:10026000809341008F910895CF93DF93CDB7DEB790
:100270000E941E010E946C010E94870180E098E0AC
:1002800022E0FC012083000080E093E0FC018581F6
:10029000882F90E081709927892BB1F380E093E05B
:1002A00020910020222F30E0220F331F2F5F3F4D7F
:1002B000F90120813181FC01208F318F8091002054
:1002C000882321F48FEF80930020DDCF80910020E0
:1002D000815080930020D7CFCF93DF93CDB7DEB787
:1002E00080E093E021E0FC01218380E093E028E1BD
:1002F000FC01228380E093E025E0FC01208380E084
:1003000093E0FC0113820000DF91CF910895CF9319
:10031000DF9300D0CDB7DEB788E290E089839A837F
:100320001B8280E098E0FC0110A211A280E098E01E
:100330002B81422F220F550B29813A81240F351F23
:10034000FC0126A337A380E891E020ECFC01208388
:1003500000002396CDBFDEBFDF91CF910895F894C2
:02036000FFCFCD
:10036200FF0008320864089608C808FA082C095EDB
:10037200098F09C009F109220A520A820AB10AE068
:100382000A0F0B3D0B6B0B980BC50BF10B1C0C47AB
:100392000C710C9A0CC30CEB0C120D390D5F0D8312
:1003A2000DA70DCA0DED0D0E0E2E0E4E0E6C0E8A01
:1003B2000EA60EC10EDC0EF50E0D0F240F3A0F4FD6
:1003C2000F630F760F870F980FA70FB50FC20FCDD0
:1003D2000FD80FE10FE90FF00FF50FF90FFD0FFE28
:1003E2000FFF0FFE0FFD0FF90FF50FF00FE90FE1F1
:1003F2000FD80FCD0FC20FB50FA70F980F870F762B
:100402000F630F4F0F3A0F240F0D0FF50EDC0EC1C5
:100412000EA60E8A0E6C0E4E0E2E0E0E0EED0DCA8E
:100422000DA70D830D5F0D390D120DEB0CC30C9A48
:100432000C710C470C1C0CF10BC50B980B6B0B3D94
:100442000B0F0BE00AB10A820A520A220AF109C012
:10045200098F095E092C09FA08C80896086408324F
:10046200080008CD079B07690737070507D306A1D0
:100472000670063F060E06DD05AD057D054E051F1D
:1004820005F004C204940467043A040E04E303B8BA
:10049200038E0365033C031403ED02C602A0027C33
:1004A20002580235021202F101D101B10193017524
:1004B2000159013E0123010A01F200DB00C500B02F
:1004C200009C0089007800670058004A003D003215
:1004D2000027001E0016000F000A0006000200019D
:1004E2000000000100020006000A000F0016001EB4
:1004F20000270032003D004A00580067007800895A
:10050200009C00B000C500DB00F2000A0123013E9E
:1005120001590175019301B101D101F101120235B5
:100522000258027C02A002C602ED0214033C0365DB
:10053200038E03B803E3030E043A0467049404C26F
:1005420004F0041F054E057D05AD05DD050E063FD1
:10055200067006A106D3060507370769079B07CD74
:02056200070090
:00000001FF
