:100000000C94FE000C941C010C941C010C941C011B
:100010000C941C010C941C010C941C010C941C01EC
:100020000C941C010C941C010C941C010C941C01DC
:100030000C941C010C941C010C941C010C941C01CC
:100040000C941C010C941C010C941C010C941C01BC
:100050000C941C010C941C010C941C010C941C01AC
:100060000C941C010C941C010C941C010C941C019C
:100070000C941C010C941C010C941C010C941C018C
:100080000C941C010C941C010C941C010C941C017C
:100090000C941C010C941C010C941C010C941C016C
:1000A0000C941C010C941C010C941C010C941C015C
:1000B0000C941C010C941C010C941C010C941C014C
:1000C0000C941C010C941C010C941C010C941C013C
:1000D0000C941C010C941C010C941C010C941C012C
:1000E0000C941C010C941C010C941C010C941C011C
:1000F0000C941C010C941C010C941C010C941C010C
:100100000C941C010C941C010C941C010C941C01FB
:100110000C941C010C941C010C941C010C941C01EB
:100120000C941C010C941C010C941C010C941C01DB
:100130000C941C010C941C010C941C010C941C01CB
:100140000C941C010C941C010C941C010C941C01BB
:100150000C941C010C941C010C941C010C941C01AB
:100160000C9412020C941C010C941C010C941C01A4
:100170000C941C010C941C010C941C010C941C018B
:100180000C941C010C941C010C941C010C941C017B
:100190000C941C010C941C010C941C010C941C016B
:1001A0000C941C010C941C010C941C010C941C015B
:1001B0000C941C010C941C010C941C010C941C014B
:1001C0000C941C010C941C010C941C010C941C013B
:1001D0000C941C010C941C010C941C010C941C012B
:1001E0000C941C010C941C010C941C010C941C011B
:1001F0000C941C010C941C010C941C0111241FBEB6
:10020000CFEFCDBFDFE3DEBF00E00CBF18BE19BEED
:100210001ABE1BBE12E2A0E0B0E2EEE6F4E000E09F
:100220000BBF02C007900D92A230B107D9F71BBED9
:100230000E9434010C9435020C9400008F9382E0EC
:10024000809350008091510081FFFCCF88ED809316
:10025000340081E08093400088ED8093340080E09A
:10026000809341008F910895CF93DF93CDB7DEB790
:100270000E941E010E9448010E94FE010E945F012F
:100280000E94870180E098E022E0FC012083FFCFFC
:10029000CF93DF93CDB7DEB780E093E020E2FC019F
:1002A000218380E093E028E1FC01228380E093E059
:1002B00029E0FC0120830000DF91CF910895CF93C6
:1002C000DF9300D0CDB7DEB78FE390E089839A83C8
:1002D0001B8280E098E0FC0110A211A280E098E06F
:1002E0002B81422F220F550B29813A81240F351F74
:1002F000FC0126A337A380E891E020ECFC012083D9
:1003000000002396CDBFDEBFDF91CF910895CF933C
:10031000DF93CDB7DEB780E091E020E030E2FC0172
:10032000208F80E091E020E030E2232F3327FC0192
:10033000218F80E091E020E030E240E150E002C017
:10034000369527954A95E2F7FC01228F80E091E0EF
:100350002AE1FC01248F80E091E023E0FC01258F5D
:1003600080E091E0FC01168E80E091E020E032E038
:10037000FC01248B358B80E091E020E031E0F90135
:1003800020892162FC01208B80E091E020E031E0B7
:10039000F90120892460FC01208B80E091E020E0BD
:1003A00031E0F90122892864FC01228B80E091E090
:1003B00020E031E0F90122892161FC01228B80E0FB
:1003C00091E020E031E0F90123892160FC01238BD9
:1003D00080E091E020E031E0F90120812068FC011B
:1003E000208380E091E020E031E0F901208920685D
:1003F000FC01208B0000DF91CF910895CF93DF9314
:10040000CDB7DEB780E496E020910022FC01258381
:1004100080E496E020910022FC0121830000DF911E
:10042000CF9108951F920F9200903F000F921124D8
:10043000009038000F921092380000903A000F920E
:1004400010923A00CF93DF93CDB7DEB70000DF9173
:10045000CF910F9000923A000F90009238000F90C9
:0E04600000923F000F901F901895F894FFCF68
:10046E002000400060008000A000C000E0000001FD
:10047E002001400160018001A001C001E0010002E5
:10048E002002400260028002A002C002E0020003CD
:10049E002003400360038003A003C003E0030004B5
:1004AE002004400460048004A004C004E00400059D
:1004BE002005400560058005A005C005E005000685
:1004CE002006400660068006A006C006E00600076D
:1004DE002007400760078007A007C007E007000855
:1004EE001F083F085F087F089F08BF08DF08FF0846
:1004FE001F093F095F097F099F09BF09DF09FF092E
:10050E001F0A3F0A5F0A7F0A9F0ABF0ADF0AFF0A15
:10051E001F0B3F0B5F0B7F0B9F0BBF0BDF0BFF0BFD
:10052E001F0C3F0C5F0C7F0C9F0CBF0CDF0CFF0CE5
:10053E001F0D3F0D5F0D7F0D9F0DBF0DDF0DFF0DCD
:10054E001F0E3F0E5F0E7F0E9F0EBF0EDF0EFF0EB5
:10055E001F0F3F0F5F0F7F0F9F0FBF0FDF0FFF0F9D
:10056E00DF0FBF0F9F0F7F0F5F0F3F0F1F0FFF0E8E
:10057E00DF0EBF0E9F0E7F0E5F0E3F0E1F0EFF0D86
:10058E00DF0DBF0D9F0D7F0D5F0D3F0D1F0DFF0C7E
:10059E00DF0CBF0C9F0C7F0C5F0C3F0C1F0CFF0B76
:1005AE00DF0BBF0B9F0B7F0B5F0B3F0B1F0BFF0A6E
:1005BE00DF0ABF0A9F0A7F0A5F0A3F0A1F0AFF0966
:1005CE00DF09BF099F097F095F093F091F09FF085E
:1005DE00DF08BF089F087F085F083F081F08000854
:1005EE00E007C007A0078007600740072007000745
:1005FE00E006C006A006800660064006200600063D
:10060E00E005C005A0058005600540052005000534
:10061E00E004C004A004800460044004200400042C
:10062E00E003C003A0038003600340032003000324
:10063E00E002C002A002800260024002200200021C
:10064E00E001C001A0018001600140012001000114
:10065E00E000C000A000800060004000200000000C
:02066E0080000A
:00000001FF
