:100000000C94FE000C941C010C941C010C941C011B
:100010000C941C010C941C010C941C010C941C01EC
:100020000C941C010C941C010C941C010C941C01DC
:100030000C941C010C941C010C941C010C941C01CC
:100040000C941C010C941C010C941C010C941C01BC
:100050000C941C010C941C010C941C010C941C01AC
:100060000C941C010C941C010C941C010C941C019C
:100070000C941C010C941C010C941C010C941C018C
:100080000C941C010C941C010C941C010C941C017C
:100090000C941C010C941C010C941C010C941C016C
:1000A0000C941C010C941C010C941C010C941C015C
:1000B0000C941C010C941C010C941C010C941C014C
:1000C0000C941C010C941C010C941C010C941C013C
:1000D0000C941C010C941C010C941C010C941C012C
:1000E0000C941C010C941C010C941C010C941C011C
:1000F0000C941C010C941C010C941C010C941C010C
:100100000C941C010C941C010C941C010C941C01FB
:100110000C941C010C941C010C941C010C941C01EB
:100120000C941C010C941C010C941C010C941C01DB
:100130000C941C010C941C010C941C010C941C01CB
:100140000C941C010C941C010C941C010C941C01BB
:100150000C941C010C941C010C941C010C941C01AB
:100160000C941C010C941C010C941C010C941C019B
:100170000C941C010C941C010C941C010C941C018B
:100180000C941C010C941C010C941C010C941C017B
:100190000C941C010C941C010C941C010C941C016B
:1001A0000C941C010C941C010C941C010C941C015B
:1001B0000C941C010C941C010C941C010C941C014B
:1001C0000C941C010C941C010C941C010C941C013B
:1001D0000C941C010C941C010C941C010C941C012B
:1001E0000C941C010C941C010C941C010C941C011B
:1001F0000C941C010C941C010C941C0111241FBEB6
:10020000CFEFCDBFDFE3DEBF00E00CBF18BE19BEED
:100210001ABE1BBE12E2A0E0B0E2EAEFF3E000E09B
:100220000BBF02C007900D92A030B107D9F71BBEDB
:100230000E9434010C94FB010C9400008F9382E027
:10024000809350008091510081FFFCCF88ED809316
:10025000340081E08093400088ED8093340080E09A
:10026000809341008F910895CF93DF93CDB7DEB790
:100270000E941E010E9446010E945C010E948401AE
:1002800080E098E022E0FC012083FFCFCF93DF9352
:10029000CDB7DEB780E093E0FC01118280E093E00F
:1002A00028E1FC01228380E093E025E0FC0120832B
:1002B0000000DF91CF910895CF93DF9300D0CDB7A9
:1002C000DEB788E290E089839A831B8280E098E021
:1002D000FC0110A211A280E098E02B81422F220F96
:1002E000550B29813A81240F351FFC0126A337A322
:1002F00080E891E020ECFC01208300002396CDBF34
:10030000DEBFDF91CF910895CF93DF93CDB7DEB7F6
:1003100080E091E020E030E2FC01208F80E091E07D
:1003200020E030E2232F3327FC01218F80E091E091
:1003300020E030E240E150E002C0369527954A9532
:10034000E2F7FC01228F80E091E028E1FC01248F9C
:1003500080E091E023E0FC01258F80E091E0FC014A
:10036000168E80E091E020E032E0FC01248B358B9A
:1003700080E091E020E031E0F90120892162FC0178
:10038000208B80E091E020E031E0F90120892460B9
:10039000FC01208B80E091E020E031E0F90122892E
:1003A0002864FC01228B80E091E020E031E0F9013B
:1003B00022892161FC01228B80E091E020E031E084
:1003C000F90123892160FC01238B80E091E020E08A
:1003D00031E0F90120812068FC01208380E091E078
:1003E00020E031E0F90120892068FC01208B000029
:0A03F000DF91CF910895F894FFCF3C
:1003FA000008320864089608C808FA082C095E0939
:10040A008F09C009F109220A520A820AB10AE00ACE
:10041A000F0B3D0B6B0B980BC50BF10B1C0C470C10
:10042A00710C9A0CC30CEB0C120D390D5F0D830D78
:10043A00A70DCA0DED0D0E0E2E0E4E0E6C0E8A0E67
:10044A00A60EC10EDC0EF50E0D0F240F3A0F4F0F3C
:10045A00630F760F870F980FA70FB50FC20FCD0F37
:10046A00D80FE10FE90FF00FF50FF90FFD0FFE0F8F
:10047A00FF0FFE0FFD0FF90FF50FF00FE90FE10F58
:10048A00D80FCD0FC20FB50FA70F980F870F760F92
:10049A00630F4F0F3A0F240F0D0FF50EDC0EC10E2E
:1004AA00A60E8A0E6C0E4E0E2E0E0E0EED0DCA0DF7
:1004BA00A70D830D5F0D390D120DEB0CC30C9A0CB1
:1004CA00710C470C1C0CF10BC50B980B6B0B3D0BFD
:1004DA000F0BE00AB10A820A520A220AF109C0097C
:1004EA008F095E092C09FA08C808960864083208B8
:1004FA000008CD079B07690737070507D306A1063A
:10050A0070063F060E06DD05AD057D054E051F0585
:10051A00F004C204940467043A040E04E303B80323
:10052A008E0365033C031403ED02C602A0027C029B
:10053A00580235021202F101D101B101930175018C
:10054A0059013E0123010A01F200DB00C500B00097
:10055A009C0089007800670058004A003D0032007C
:10056A0027001E0016000F000A0006000200010004
:10057A0000000100020006000A000F0016001E001B
:10058A00270032003D004A005800670078008900C1
:10059A009C00B000C500DB00F2000A0123013E0105
:1005AA00590175019301B101D101F101120235021C
:1005BA0058027C02A002C602ED0214033C03650342
:1005CA008E03B803E3030E043A0467049404C204D6
:1005DA00F0041F054E057D05AD05DD050E063F0637
:1005EA007006A106D3060507370769079B07CD07DB
:00000001FF
