S00D00006C61625F382E7372656351
S11300000C94FE000C941C010C941C010C941C0117
S11300100C941C010C941C010C941C010C941C01E8
S11300200C941C010C941C010C941C010C941C01D8
S11300300C941C010C941C010C948C010C941C0158
S11300400C941C010C941C010C941C010C941C01B8
S11300500C941C010C941C010C941C010C941C01A8
S11300600C941C010C941C010C941C010C941C0198
S11300700C941C010C941C010C941C010C941C0188
S11300800C941C010C941C010C941C010C941C0178
S11300900C941C010C941C010C941C010C941C0168
S11300A00C941C010C941C010C941C010C941C0158
S11300B00C941C010C941C010C941C010C941C0148
S11300C00C941C010C941C010C941C010C941C0138
S11300D00C941C010C941C010C941C010C941C0128
S11300E00C941C010C941C010C941C010C941C0118
S11300F00C941C010C941C010C941C010C941C0108
S11301000C941C010C941C010C941C010C941C01F7
S11301100C941C010C941C010C941C010C941C01E7
S11301200C941C010C941C010C941C010C941C01D7
S11301300C941C010C941C010C941C010C941C01C7
S11301400C941C010C941C010C941C010C941C01B7
S11301500C941C010C941C010C941C010C941C01A7
S11301600C941C010C941C010C941C010C941C0197
S11301700C941C010C941C010C941C010C941C0187
S11301800C941C010C941C010C941C010C941C0177
S11301900C941C010C941C010C941C010C941C0167
S11301A00C941C010C941C010C941C010C941C0157
S11301B00C941C010C941C010C941C010C941C0147
S11301C00C941C010C941C010C941C010C941C0137
S11301D00C941C010C941C010C941C010C941C0127
S11301E00C941C010C941C010C941C010C941C0117
S11301F00C941C010C941C010C941C0111241FBEB2
S1130200CFEFCDBFDFE3DEBF00E00CBF18BE19BEE9
S11302101ABE1BBE10E2A0E0B0E2ECEDF3E000E099
S11302200BBF02C007900D92A430B107D9F71BBED3
S11302300E9434010C94EC010C9400008F9382E032
S1130240809350008091510081FFFCCF88ED809312
S1130250340081E08093400088ED8093340080E096
S1130260809341008F910895CF93DF93CDB7DEB78C
S11302700E941E010E944A010E94600180E098E0F1
S113028022E0FC01208380EA90E022E0FC0122834A
S11302907894FFCFCF93DF93CDB7DEB780E093E0C0
S11302A0FC01118280E093E028E1FC01228380E0DC
S11302B093E025E0FC0120830000DF91CF910895B5
S11302C0CF93DF9300D0CDB7DEB78FE390E089837F
S11302D09A831B8280E098E0FC0110A211A280E0C6
S11302E098E02B81422F50E029813A81240F351F59
S11302F0FC0126A337A380E098E0FC0110A211A220
S113030080E098E022E0FC01268300002396CDBF24
S1130310DEBFDF91CF9108951F920F9200903F00AE
S11303200F921124009038000F9210923800009020
S11303303A000F9210923A0000903B000F921092F4
S11303403B002F933F934F935F938F939F93EF9330
S1130350FF93CF93DF93CDB7DEB780E098E0FC0145
S113036010A211A280E093E040910120509102205C
S113037020910020222F30E0240F351FF901208125
S1130380222F30E0FC01208F318F809100208823C0
S113039021F48FEF8093002005C0809100208150CC
S11303A0809300200000DF91CF91FF91EF919F9106
S11303B08F915F914F913F912F910F9000923B004D
S11303C00F9000923A000F90009238000F90009224
S10F03D03F000F901F901895F894FFCF89
S10703DCFF00080012
S9030000FC
